{
  "contractName": "Staking",
  "abi": [
    {
      "inputs": [],
      "stateMutability": "nonpayable",
      "type": "constructor"
    },
    {
      "anonymous": false,
      "inputs": [
        {
          "indexed": false,
          "internalType": "address",
          "name": "staker",
          "type": "address"
        },
        {
          "indexed": false,
          "internalType": "address",
          "name": "token",
          "type": "address"
        },
        {
          "indexed": false,
          "internalType": "uint256",
          "name": "amount",
          "type": "uint256"
        }
      ],
      "name": "ERC20Staked",
      "type": "event"
    },
    {
      "anonymous": false,
      "inputs": [
        {
          "indexed": false,
          "internalType": "address",
          "name": "staker",
          "type": "address"
        },
        {
          "indexed": false,
          "internalType": "address",
          "name": "token",
          "type": "address"
        },
        {
          "indexed": false,
          "internalType": "uint256",
          "name": "stakeAmount",
          "type": "uint256"
        }
      ],
      "name": "ERC20Unstaked",
      "type": "event"
    },
    {
      "anonymous": false,
      "inputs": [
        {
          "indexed": true,
          "internalType": "address",
          "name": "previousOwner",
          "type": "address"
        },
        {
          "indexed": true,
          "internalType": "address",
          "name": "newOwner",
          "type": "address"
        }
      ],
      "name": "OwnershipTransferred",
      "type": "event"
    },
    {
      "anonymous": false,
      "inputs": [
        {
          "indexed": false,
          "internalType": "address",
          "name": "staker",
          "type": "address"
        },
        {
          "indexed": false,
          "internalType": "uint256",
          "name": "rewardAmount",
          "type": "uint256"
        }
      ],
      "name": "RewardClaimed",
      "type": "event"
    },
    {
      "anonymous": false,
      "inputs": [
        {
          "indexed": false,
          "internalType": "uint256",
          "name": "rewardsAmount",
          "type": "uint256"
        }
      ],
      "name": "RewardsFunded",
      "type": "event"
    },
    {
      "anonymous": false,
      "inputs": [
        {
          "indexed": false,
          "internalType": "uint256",
          "name": "rewardsAmount",
          "type": "uint256"
        }
      ],
      "name": "RewardsRefunded",
      "type": "event"
    },
    {
      "inputs": [],
      "name": "owner",
      "outputs": [
        {
          "internalType": "address",
          "name": "",
          "type": "address"
        }
      ],
      "stateMutability": "view",
      "type": "function",
      "constant": true
    },
    {
      "inputs": [
        {
          "internalType": "address",
          "name": "",
          "type": "address"
        }
      ],
      "name": "priceFeed",
      "outputs": [
        {
          "internalType": "address",
          "name": "",
          "type": "address"
        }
      ],
      "stateMutability": "view",
      "type": "function",
      "constant": true
    },
    {
      "inputs": [],
      "name": "renounceOwnership",
      "outputs": [],
      "stateMutability": "nonpayable",
      "type": "function"
    },
    {
      "inputs": [
        {
          "internalType": "address",
          "name": "",
          "type": "address"
        }
      ],
      "name": "stakeList",
      "outputs": [
        {
          "internalType": "uint256",
          "name": "",
          "type": "uint256"
        }
      ],
      "stateMutability": "view",
      "type": "function",
      "constant": true
    },
    {
      "inputs": [
        {
          "internalType": "uint256",
          "name": "",
          "type": "uint256"
        }
      ],
      "name": "stakes",
      "outputs": [
        {
          "internalType": "bool",
          "name": "isActive",
          "type": "bool"
        },
        {
          "internalType": "address",
          "name": "staker",
          "type": "address"
        },
        {
          "internalType": "address",
          "name": "token",
          "type": "address"
        },
        {
          "internalType": "uint256",
          "name": "value",
          "type": "uint256"
        },
        {
          "internalType": "uint256",
          "name": "timestamp",
          "type": "uint256"
        }
      ],
      "stateMutability": "view",
      "type": "function",
      "constant": true
    },
    {
      "inputs": [
        {
          "internalType": "address",
          "name": "newOwner",
          "type": "address"
        }
      ],
      "name": "transferOwnership",
      "outputs": [],
      "stateMutability": "nonpayable",
      "type": "function"
    },
    {
      "inputs": [
        {
          "internalType": "address",
          "name": "_tokenAddress",
          "type": "address"
        },
        {
          "internalType": "uint256",
          "name": "_tokenValue",
          "type": "uint256"
        }
      ],
      "name": "stake",
      "outputs": [],
      "stateMutability": "nonpayable",
      "type": "function"
    },
    {
      "inputs": [],
      "name": "unstake",
      "outputs": [],
      "stateMutability": "nonpayable",
      "type": "function"
    },
    {
      "inputs": [
        {
          "internalType": "address",
          "name": "_stakeholder",
          "type": "address"
        }
      ],
      "name": "stakeOf",
      "outputs": [
        {
          "internalType": "uint256",
          "name": "",
          "type": "uint256"
        }
      ],
      "stateMutability": "view",
      "type": "function",
      "constant": true
    },
    {
      "inputs": [
        {
          "internalType": "address",
          "name": "_stakeholder",
          "type": "address"
        }
      ],
      "name": "stakeTokenOf",
      "outputs": [
        {
          "internalType": "address",
          "name": "",
          "type": "address"
        }
      ],
      "stateMutability": "view",
      "type": "function",
      "constant": true
    },
    {
      "inputs": [],
      "name": "totalStakes",
      "outputs": [
        {
          "internalType": "uint256",
          "name": "",
          "type": "uint256"
        }
      ],
      "stateMutability": "view",
      "type": "function",
      "constant": true
    },
    {
      "inputs": [],
      "name": "totalRewards",
      "outputs": [
        {
          "internalType": "uint256",
          "name": "",
          "type": "uint256"
        }
      ],
      "stateMutability": "view",
      "type": "function",
      "constant": true
    },
    {
      "inputs": [
        {
          "internalType": "address",
          "name": "_stakeholder",
          "type": "address"
        }
      ],
      "name": "calculateReward",
      "outputs": [
        {
          "internalType": "uint256",
          "name": "",
          "type": "uint256"
        }
      ],
      "stateMutability": "view",
      "type": "function",
      "constant": true
    },
    {
      "inputs": [],
      "name": "claimReward",
      "outputs": [],
      "stateMutability": "nonpayable",
      "type": "function"
    },
    {
      "inputs": [
        {
          "internalType": "address",
          "name": "_ERC20Address",
          "type": "address"
        }
      ],
      "name": "getERC20ETHPrice",
      "outputs": [
        {
          "internalType": "int256",
          "name": "",
          "type": "int256"
        }
      ],
      "stateMutability": "view",
      "type": "function",
      "constant": true
    },
    {
      "inputs": [],
      "name": "rewardFunds",
      "outputs": [
        {
          "internalType": "uint256",
          "name": "",
          "type": "uint256"
        }
      ],
      "stateMutability": "view",
      "type": "function",
      "constant": true
    },
    {
      "inputs": [],
      "name": "fundRewards",
      "outputs": [],
      "stateMutability": "payable",
      "type": "function",
      "payable": true
    },
    {
      "inputs": [],
      "name": "refundRewards",
      "outputs": [],
      "stateMutability": "nonpayable",
      "type": "function"
    }
  ],
  "bytecode": "0x608060405234801561001057600080fd5b50600061002161030960201b60201c565b9050806000806101000a81548173ffffffffffffffffffffffffffffffffffffffff021916908373ffffffffffffffffffffffffffffffffffffffff1602179055508073ffffffffffffffffffffffffffffffffffffffff16600073ffffffffffffffffffffffffffffffffffffffff167f8be0079c531659141344cd1fd0a4f28419497f9722a3daafe3b4186f6b6457e060405160405180910390a3507322b58f1ebedfca50fef632bd73368b2fda96d54160036000734f96fe3b7a6cf9725f59d353f723c1bdb64ca6aa73ffffffffffffffffffffffffffffffffffffffff1673ffffffffffffffffffffffffffffffffffffffff16815260200190815260200160002060006101000a81548173ffffffffffffffffffffffffffffffffffffffff021916908373ffffffffffffffffffffffffffffffffffffffff16021790555073d04647b7cb523bb9f26730e9b6de1174db7591ad600360007302d9844e6c67b6251edf631f0ec72c4d545e6eab73ffffffffffffffffffffffffffffffffffffffff1673ffffffffffffffffffffffffffffffffffffffff16815260200190815260200160002060006101000a81548173ffffffffffffffffffffffffffffffffffffffff021916908373ffffffffffffffffffffffffffffffffffffffff160217905550610213610311565b600181908060018154018082558091505060019003906000526020600020906004020160009091909190915060008201518160000160006101000a81548160ff02191690831515021790555060208201518160000160016101000a81548173ffffffffffffffffffffffffffffffffffffffff021916908373ffffffffffffffffffffffffffffffffffffffff16021790555060408201518160010160006101000a81548173ffffffffffffffffffffffffffffffffffffffff021916908373ffffffffffffffffffffffffffffffffffffffff160217905550606082015181600201556080820151816003015550505061036e565b600033905090565b6040518060a00160405280600015158152602001600073ffffffffffffffffffffffffffffffffffffffff168152602001600073ffffffffffffffffffffffffffffffffffffffff16815260200160008152602001600081525090565b612074806200037e6000396000f3fe6080604052600436106101095760003560e01c8063b211ddf211610095578063d5a44f8611610064578063d5a44f8614610481578063d71fe0211461051a578063d82e396214610545578063f2fde38b146105aa578063ff18bf0b146105fb57610109565b8063b211ddf21461035f578063b88a802f146103da578063bf9befb1146103f1578063d2376cd21461041c57610109565b80632def6620116100dc5780632def6620146102305780634262336014610247578063715018a6146102ac5780638da5cb5b146102c3578063adc9772e1461030457610109565b80630e15561a1461010e5780631fd48b9a1461013957806321130faf146101b4578063234b9d1a14610219575b600080fd5b34801561011a57600080fd5b50610123610605565b6040518082815260200191505060405180910390f35b34801561014557600080fd5b506101886004803603602081101561015c57600080fd5b81019080803573ffffffffffffffffffffffffffffffffffffffff1690602001909291905050506106b2565b604051808273ffffffffffffffffffffffffffffffffffffffff16815260200191505060405180910390f35b3480156101c057600080fd5b50610203600480360360208110156101d757600080fd5b81019080803573ffffffffffffffffffffffffffffffffffffffff1690602001909291905050506106e5565b6040518082815260200191505060405180910390f35b34801561022557600080fd5b5061022e6106fd565b005b34801561023c57600080fd5b50610245610845565b005b34801561025357600080fd5b506102966004803603602081101561026a57600080fd5b81019080803573ffffffffffffffffffffffffffffffffffffffff169060200190929190505050610cb0565b6040518082815260200191505060405180910390f35b3480156102b857600080fd5b506102c1610d17565b005b3480156102cf57600080fd5b506102d8610e9d565b604051808273ffffffffffffffffffffffffffffffffffffffff16815260200191505060405180910390f35b34801561031057600080fd5b5061035d6004803603604081101561032757600080fd5b81019080803573ffffffffffffffffffffffffffffffffffffffff16906020019092919080359060200190929190505050610ec6565b005b34801561036b57600080fd5b506103ae6004803603602081101561038257600080fd5b81019080803573ffffffffffffffffffffffffffffffffffffffff1690602001909291905050506113a5565b604051808273ffffffffffffffffffffffffffffffffffffffff16815260200191505060405180910390f35b3480156103e657600080fd5b506103ef61142c565b005b3480156103fd57600080fd5b506104066116de565b6040518082815260200191505060405180910390f35b34801561042857600080fd5b5061046b6004803603602081101561043f57600080fd5b81019080803573ffffffffffffffffffffffffffffffffffffffff1690602001909291905050506117c2565b6040518082815260200191505060405180910390f35b34801561048d57600080fd5b506104ba600480360360208110156104a457600080fd5b81019080803590602001909291905050506118f0565b6040518086151581526020018573ffffffffffffffffffffffffffffffffffffffff1681526020018473ffffffffffffffffffffffffffffffffffffffff1681526020018381526020018281526020019550505050505060405180910390f35b34801561052657600080fd5b5061052f611980565b6040518082815260200191505060405180910390f35b34801561055157600080fd5b506105946004803603602081101561056857600080fd5b81019080803573ffffffffffffffffffffffffffffffffffffffff169060200190929190505050611988565b6040518082815260200191505060405180910390f35b3480156105b657600080fd5b506105f9600480360360208110156105cd57600080fd5b81019080803573ffffffffffffffffffffffffffffffffffffffff169060200190929190505050611b78565b005b610603611d83565b005b600080600090506000600190505b6001805490508110156106aa576001818154811061062d57fe5b906000526020600020906004020160000160009054906101000a900460ff161561069d576106986001828154811061066157fe5b906000526020600020906004020160000160019054906101000a900473ffffffffffffffffffffffffffffffffffffffff16611988565b820191505b8080600101915050610613565b508091505090565b60036020528060005260406000206000915054906101000a900473ffffffffffffffffffffffffffffffffffffffff1681565b60026020528060005260406000206000915090505481565b610705611efa565b73ffffffffffffffffffffffffffffffffffffffff1660008054906101000a900473ffffffffffffffffffffffffffffffffffffffff1673ffffffffffffffffffffffffffffffffffffffff16146107c5576040517f08c379a00000000000000000000000000000000000000000000000000000000081526004018080602001828103825260208152602001807f4f776e61626c653a2063616c6c6572206973206e6f7420746865206f776e657281525060200191505060405180910390fd5b3373ffffffffffffffffffffffffffffffffffffffff166108fc479081150290604051600060405180830381858888f1935050505015801561080b573d6000803e3d6000fd5b507f6b53533aa8751efe7ed96a538d86514ea49ec6120bb03b7d1866258a61c9ddb0476040518082815260200191505060405180910390a1565b60006001600260003373ffffffffffffffffffffffffffffffffffffffff1673ffffffffffffffffffffffffffffffffffffffff168152602001908152602001600020548154811061089357fe5b90600052602060002090600402016002015411610918576040517f08c379a00000000000000000000000000000000000000000000000000000000081526004018080602001828103825260128152602001807f4e6f2063757272656e74205374616b652021000000000000000000000000000081525060200191505060405180910390fd5b60006001600260003373ffffffffffffffffffffffffffffffffffffffff1673ffffffffffffffffffffffffffffffffffffffff168152602001908152602001600020548154811061096657fe5b906000526020600020906004020160020154905060006001600260003373ffffffffffffffffffffffffffffffffffffffff1673ffffffffffffffffffffffffffffffffffffffff16815260200190815260200160002054815481106109c857fe5b906000526020600020906004020160010160009054906101000a900473ffffffffffffffffffffffffffffffffffffffff1690506000610a0733611988565b1115610a1657610a1561142c565b5b60006001600260003373ffffffffffffffffffffffffffffffffffffffff1673ffffffffffffffffffffffffffffffffffffffff1681526020019081526020016000205481548110610a6457fe5b906000526020600020906004020160000160006101000a81548160ff02191690831515021790555060006001600260003373ffffffffffffffffffffffffffffffffffffffff1673ffffffffffffffffffffffffffffffffffffffff1681526020019081526020016000205481548110610ada57fe5b90600052602060002090600402016002018190555060006001600260003373ffffffffffffffffffffffffffffffffffffffff1673ffffffffffffffffffffffffffffffffffffffff1681526020019081526020016000205481548110610b3d57fe5b906000526020600020906004020160010160006101000a81548173ffffffffffffffffffffffffffffffffffffffff021916908373ffffffffffffffffffffffffffffffffffffffff1602179055508073ffffffffffffffffffffffffffffffffffffffff1663a9059cbb33846040518363ffffffff1660e01b8152600401808373ffffffffffffffffffffffffffffffffffffffff16815260200182815260200192505050602060405180830381600087803b158015610bfd57600080fd5b505af1158015610c11573d6000803e3d6000fd5b505050506040513d6020811015610c2757600080fd5b8101908080519060200190929190505050507ff3bfab78b1c6ac38ef101ddd532691acf17d6d52c0d05a818a3031789c60a5be338284604051808473ffffffffffffffffffffffffffffffffffffffff1681526020018373ffffffffffffffffffffffffffffffffffffffff168152602001828152602001935050505060405180910390a15050565b60006001600260008473ffffffffffffffffffffffffffffffffffffffff1673ffffffffffffffffffffffffffffffffffffffff1681526020019081526020016000205481548110610cfe57fe5b9060005260206000209060040201600201549050919050565b610d1f611efa565b73ffffffffffffffffffffffffffffffffffffffff1660008054906101000a900473ffffffffffffffffffffffffffffffffffffffff1673ffffffffffffffffffffffffffffffffffffffff1614610ddf576040517f08c379a00000000000000000000000000000000000000000000000000000000081526004018080602001828103825260208152602001807f4f776e61626c653a2063616c6c6572206973206e6f7420746865206f776e657281525060200191505060405180910390fd5b600073ffffffffffffffffffffffffffffffffffffffff1660008054906101000a900473ffffffffffffffffffffffffffffffffffffffff1673ffffffffffffffffffffffffffffffffffffffff167f8be0079c531659141344cd1fd0a4f28419497f9722a3daafe3b4186f6b6457e060405160405180910390a360008060006101000a81548173ffffffffffffffffffffffffffffffffffffffff021916908373ffffffffffffffffffffffffffffffffffffffff160217905550565b60008060009054906101000a900473ffffffffffffffffffffffffffffffffffffffff16905090565b60008111610f3c576040517f08c379a00000000000000000000000000000000000000000000000000000000081526004018080602001828103825260188152602001807f4e6f20546f6b656e2076616c756520746f2066756e642021000000000000000081525060200191505060405180910390fd5b8173ffffffffffffffffffffffffffffffffffffffff166323b872dd3330846040518463ffffffff1660e01b8152600401808473ffffffffffffffffffffffffffffffffffffffff1681526020018373ffffffffffffffffffffffffffffffffffffffff1681526020018281526020019350505050602060405180830381600087803b158015610fcb57600080fd5b505af1158015610fdf573d6000803e3d6000fd5b505050506040513d6020811015610ff557600080fd5b810190808051906020019092919050505050600115156001600260003373ffffffffffffffffffffffffffffffffffffffff1673ffffffffffffffffffffffffffffffffffffffff168152602001908152602001600020548154811061105757fe5b906000526020600020906004020160000160009054906101000a900460ff1615151415611154576110ee816001600260003373ffffffffffffffffffffffffffffffffffffffff1673ffffffffffffffffffffffffffffffffffffffff16815260200190815260200160002054815481106110ce57fe5b906000526020600020906004020160020154611f0290919063ffffffff16565b6001600260003373ffffffffffffffffffffffffffffffffffffffff1673ffffffffffffffffffffffffffffffffffffffff168152602001908152602001600020548154811061113a57fe5b90600052602060002090600402016002018190555061132e565b61115c611f8a565b600181600001901515908115158152505033816020019073ffffffffffffffffffffffffffffffffffffffff16908173ffffffffffffffffffffffffffffffffffffffff168152505082816040019073ffffffffffffffffffffffffffffffffffffffff16908173ffffffffffffffffffffffffffffffffffffffff16815250508181606001818152505042816080018181525050600181908060018154018082558091505060019003906000526020600020906004020160009091909190915060008201518160000160006101000a81548160ff02191690831515021790555060208201518160000160016101000a81548173ffffffffffffffffffffffffffffffffffffffff021916908373ffffffffffffffffffffffffffffffffffffffff16021790555060408201518160010160006101000a81548173ffffffffffffffffffffffffffffffffffffffff021916908373ffffffffffffffffffffffffffffffffffffffff160217905550606082015181600201556080820151816003015550506001808054905003600260003373ffffffffffffffffffffffffffffffffffffffff1673ffffffffffffffffffffffffffffffffffffffff16815260200190815260200160002081905550505b7f4d159d2c96938285c9ab98acc472f34545ba5006ebb126695470ce609e240b61338383604051808473ffffffffffffffffffffffffffffffffffffffff1681526020018373ffffffffffffffffffffffffffffffffffffffff168152602001828152602001935050505060405180910390a15050565b60006001600260008473ffffffffffffffffffffffffffffffffffffffff1673ffffffffffffffffffffffffffffffffffffffff16815260200190815260200160002054815481106113f357fe5b906000526020600020906004020160010160009054906101000a900473ffffffffffffffffffffffffffffffffffffffff169050919050565b600061143733611988565b9050600081116114af576040517f08c379a00000000000000000000000000000000000000000000000000000000081526004018080602001828103825260158152602001807f4e6f2052657761726420617661696c61626c652021000000000000000000000081525060200191505060405180910390fd5b603c6001600260003373ffffffffffffffffffffffffffffffffffffffff1673ffffffffffffffffffffffffffffffffffffffff16815260200190815260200160002054815481106114fd57fe5b906000526020600020906004020160030154420311611567576040517f08c379a000000000000000000000000000000000000000000000000000000000815260040180806020018281038252603181526020018061200e6031913960400191505060405180910390fd5b600047116115dd576040517f08c379a000000000000000000000000000000000000000000000000000000000815260040180806020018281038252601b8152602001807f4e6f205265776172642046756e647320617661696c61626c652021000000000081525060200191505060405180910390fd5b426001600260003373ffffffffffffffffffffffffffffffffffffffff1673ffffffffffffffffffffffffffffffffffffffff168152602001908152602001600020548154811061162a57fe5b9060005260206000209060040201600301819055503373ffffffffffffffffffffffffffffffffffffffff166108fc829081150290604051600060405180830381858888f19350505050158015611685573d6000803e3d6000fd5b507f106f923f993c2149d49b4255ff723acafa1f2d94393f561d3eda32ae348f72413382604051808373ffffffffffffffffffffffffffffffffffffffff1681526020018281526020019250505060405180910390a150565b600080600090506000600190505b6001805490508110156117ba576001818154811061170657fe5b906000526020600020906004020160000160009054906101000a900460ff16156117ad5760006117736001838154811061173c57fe5b906000526020600020906004020160010160009054906101000a900473ffffffffffffffffffffffffffffffffffffffff166117c2565b9050670de0b6b3a7640000816001848154811061178c57fe5b90600052602060002090600402016002015402816117a657fe5b0483019250505b80806001019150506116ec565b508091505090565b600080600360008473ffffffffffffffffffffffffffffffffffffffff1673ffffffffffffffffffffffffffffffffffffffff16815260200190815260200160002060009054906101000a900473ffffffffffffffffffffffffffffffffffffffff16905060008060008060008573ffffffffffffffffffffffffffffffffffffffff1663feaf968c6040518163ffffffff1660e01b815260040160a06040518083038186803b15801561187557600080fd5b505afa158015611889573d6000803e3d6000fd5b505050506040513d60a081101561189f57600080fd5b81019080805190602001909291908051906020019092919080519060200190929190805190602001909291908051906020019092919050505094509450945094509450839650505050505050919050565b600181815481106118fd57fe5b90600052602060002090600402016000915090508060000160009054906101000a900460ff16908060000160019054906101000a900473ffffffffffffffffffffffffffffffffffffffff16908060010160009054906101000a900473ffffffffffffffffffffffffffffffffffffffff16908060020154908060030154905085565b600047905090565b6000806001600260008573ffffffffffffffffffffffffffffffffffffffff1673ffffffffffffffffffffffffffffffffffffffff16815260200190815260200160002054815481106119d757fe5b90600052602060002090600402016002015414156119f85760009050611b73565b6000611a806001600260008673ffffffffffffffffffffffffffffffffffffffff1673ffffffffffffffffffffffffffffffffffffffff1681526020019081526020016000205481548110611a4957fe5b906000526020600020906004020160010160009054906101000a900473ffffffffffffffffffffffffffffffffffffffff166117c2565b90506000603c6001600260008773ffffffffffffffffffffffffffffffffffffffff1673ffffffffffffffffffffffffffffffffffffffff1681526020019081526020016000205481548110611ad257fe5b906000526020600020906004020160030154420381611aed57fe5b049050806103e8670de0b6b3a7640000846001600260008a73ffffffffffffffffffffffffffffffffffffffff1673ffffffffffffffffffffffffffffffffffffffff1681526020019081526020016000205481548110611b4a57fe5b9060005260206000209060040201600201540281611b6457fe5b0481611b6c57fe5b0402925050505b919050565b611b80611efa565b73ffffffffffffffffffffffffffffffffffffffff1660008054906101000a900473ffffffffffffffffffffffffffffffffffffffff1673ffffffffffffffffffffffffffffffffffffffff1614611c40576040517f08c379a00000000000000000000000000000000000000000000000000000000081526004018080602001828103825260208152602001807f4f776e61626c653a2063616c6c6572206973206e6f7420746865206f776e657281525060200191505060405180910390fd5b600073ffffffffffffffffffffffffffffffffffffffff168173ffffffffffffffffffffffffffffffffffffffff161415611cc6576040517f08c379a0000000000000000000000000000000000000000000000000000000008152600401808060200182810382526026815260200180611fe86026913960400191505060405180910390fd5b8073ffffffffffffffffffffffffffffffffffffffff1660008054906101000a900473ffffffffffffffffffffffffffffffffffffffff1673ffffffffffffffffffffffffffffffffffffffff167f8be0079c531659141344cd1fd0a4f28419497f9722a3daafe3b4186f6b6457e060405160405180910390a3806000806101000a81548173ffffffffffffffffffffffffffffffffffffffff021916908373ffffffffffffffffffffffffffffffffffffffff16021790555050565b611d8b611efa565b73ffffffffffffffffffffffffffffffffffffffff1660008054906101000a900473ffffffffffffffffffffffffffffffffffffffff1673ffffffffffffffffffffffffffffffffffffffff1614611e4b576040517f08c379a00000000000000000000000000000000000000000000000000000000081526004018080602001828103825260208152602001807f4f776e61626c653a2063616c6c6572206973206e6f7420746865206f776e657281525060200191505060405180910390fd5b60003411611ec1576040517f08c379a00000000000000000000000000000000000000000000000000000000081526004018080602001828103825260108152602001807f4e6f2045544820746f2066756e6420210000000000000000000000000000000081525060200191505060405180910390fd5b7fe42dde25409a3e8c7c119c1c722610d9e9bd96e73e3cead774863c9ffdd870d6346040518082815260200191505060405180910390a1565b600033905090565b600080828401905083811015611f80576040517f08c379a000000000000000000000000000000000000000000000000000000000815260040180806020018281038252601b8152602001807f536166654d6174683a206164646974696f6e206f766572666c6f77000000000081525060200191505060405180910390fd5b8091505092915050565b6040518060a00160405280600015158152602001600073ffffffffffffffffffffffffffffffffffffffff168152602001600073ffffffffffffffffffffffffffffffffffffffff1681526020016000815260200160008152509056fe4f776e61626c653a206e6577206f776e657220697320746865207a65726f2061646472657373596f75206861766520746f207374616b65206174206c6561736520312064617920746f20636c61696d2072657761726473a264697066735822122089dd36fb4581c47f1b4fdbff1031ebedbfc8094a7befb4a34a07e6d68d25d56364736f6c634300060c0033",
  "immutableReferences": {},
  "source": "// SPDX-License-Identifier: GPL-3.0\npragma solidity 0.6.12;\n\nimport \"@openzeppelin/contracts/token/ERC20/ERC20.sol\";\nimport \"@openzeppelin/contracts/math/SafeMath.sol\";\nimport \"@openzeppelin/contracts/access/Ownable.sol\";\nimport \"@chainlink/contracts/src/v0.6/interfaces/AggregatorV3Interface.sol\";\n\n/**\n * @title Staking Contract\n * @author David Rochus\n * @notice Alyra DeFi4 - Staking contract\n */\ncontract Staking is Ownable {\n    using SafeMath for uint256;\n\n    struct Stake {\n        bool isActive;\n        address staker;\n        address token;\n        uint256 value;\n        uint256 timestamp;\n    }\n\n    Stake[] public stakes;\n    mapping(address => uint256) public stakeList;\n    mapping(address => address) public priceFeed;\n\n    event ERC20Staked(address staker, address token, uint256 amount);\n    event ERC20Unstaked(address staker, address token, uint256 stakeAmount);\n    event RewardClaimed(address staker, uint256 rewardAmount);\n    event RewardsFunded(uint256 rewardsAmount);\n    event RewardsRefunded(uint256 rewardsAmount);\n\n    constructor() public {\n        // DAI/ETH\n        priceFeed[\n            0x4F96Fe3b7A6Cf9725f59d353F723c1bDb64CA6Aa\n        ] = 0x22B58f1EbEDfCA50feF632bD73368b2FdA96D541;\n        // ALY/ETH (AAVE/ETH)\n        priceFeed[\n            0x02D9844E6c67B6251eDf631f0eC72C4D545e6eAb\n        ] = 0xd04647B7CB523bb9f26730E9B6dE1174db7591Ad;\n        // Init first (dummy) stake 0\n        Stake memory stakeData;\n        stakes.push(stakeData);\n    }\n\n    function stake(address _tokenAddress, uint256 _tokenValue) external {\n        require(_tokenValue > 0, \"No Token value to fund !\");\n\n        ERC20(_tokenAddress).transferFrom(\n            msg.sender,\n            address(this),\n            _tokenValue\n        );\n        if (stakes[stakeList[msg.sender]].isActive == true) {\n            stakes[stakeList[msg.sender]].value = stakes[stakeList[msg.sender]]\n                .value\n                .add(_tokenValue);\n        } else {\n            Stake memory stakeData;\n            stakeData.isActive = true;\n            stakeData.staker = msg.sender;\n            stakeData.token = _tokenAddress;\n            stakeData.value = _tokenValue;\n            stakeData.timestamp = now;\n            stakes.push(stakeData);\n            stakeList[msg.sender] = (stakes.length - 1);\n        }\n\n        emit ERC20Staked(msg.sender, _tokenAddress, _tokenValue);\n    }\n\n    function unstake() external {\n        require(stakes[stakeList[msg.sender]].value > 0, \"No current Stake !\");\n\n        uint256 amount = stakes[stakeList[msg.sender]].value;\n        address token = stakes[stakeList[msg.sender]].token;\n\n        if (calculateReward(msg.sender) > 0) claimReward();\n        stakes[stakeList[msg.sender]].isActive = false;\n        stakes[stakeList[msg.sender]].value = 0;\n        stakes[stakeList[msg.sender]].token = address(0);\n        ERC20(token).transfer(msg.sender, amount);\n\n        emit ERC20Unstaked(msg.sender, token, amount);\n    }\n\n    function stakeOf(address _stakeholder) external view returns (uint256) {\n        return stakes[stakeList[_stakeholder]].value;\n    }\n\n    function stakeTokenOf(address _stakeholder)\n        external\n        view\n        returns (address)\n    {\n        return stakes[stakeList[_stakeholder]].token;\n    }\n\n    function totalStakes() external view returns (uint256) {\n        uint256 _totalStakes = 0;\n\n        for (uint256 i = 1; i < stakes.length; i++) {\n            if (stakes[i].isActive) {\n                uint256 ERC20ETHPrice =\n                    uint256(getERC20ETHPrice(stakes[i].token));\n                _totalStakes += ((stakes[i].value * ERC20ETHPrice) / 1e18);\n            }\n        }\n        return _totalStakes;\n    }\n\n    function totalRewards() external view returns (uint256) {\n        uint256 _totalRewards = 0;\n\n        for (uint256 i = 1; i < stakes.length; i++) {\n            if (stakes[i].isActive) {\n                _totalRewards += calculateReward(stakes[i].staker);\n            }\n        }\n        return _totalRewards;\n    }\n\n    function calculateReward(address _stakeholder)\n        public\n        view\n        returns (uint256)\n    {\n        if (stakes[stakeList[_stakeholder]].value == 0) {\n            return 0;\n        }\n        uint256 ERC20ETHPrice =\n            uint256(getERC20ETHPrice(stakes[stakeList[_stakeholder]].token));\n        uint256 stakingDays =\n            (now - stakes[stakeList[_stakeholder]].timestamp) / (1 minutes);\n        return\n            (((stakes[stakeList[_stakeholder]].value * ERC20ETHPrice) / 1e18) /\n                1000) * stakingDays;\n    }\n\n    function claimReward() public {\n        uint256 reward = calculateReward(msg.sender);\n\n        require(reward > 0, \"No Reward available !\");\n        require(\n            (now - stakes[stakeList[msg.sender]].timestamp) > 1 minutes,\n            \"You have to stake at lease 1 day to claim rewards\"\n        );\n        require(address(this).balance > 0, \"No Reward Funds available !\");\n\n        stakes[stakeList[msg.sender]].timestamp = now;\n        msg.sender.transfer(reward);\n\n        emit RewardClaimed(msg.sender, reward);\n    }\n\n    function getERC20ETHPrice(address _ERC20Address)\n        public\n        view\n        returns (int256)\n    {\n        AggregatorV3Interface priceFeedInterface =\n            AggregatorV3Interface(priceFeed[_ERC20Address]);\n\n        (\n            uint80 roundID,\n            int256 price,\n            uint256 startedAt,\n            uint256 timeStamp,\n            uint80 answeredInRound\n        ) = priceFeedInterface.latestRoundData();\n        return price;\n    }\n\n    function rewardFunds() external view returns (uint256) {\n        return address(this).balance;\n    }\n\n    function fundRewards() external payable onlyOwner {\n        require(msg.value > 0, \"No ETH to fund !\");\n        emit RewardsFunded(msg.value);\n    }\n\n    function refundRewards() external onlyOwner {\n        msg.sender.transfer(address(this).balance);\n        emit RewardsRefunded(address(this).balance);\n    }\n}\n",
  "sourcePath": "/Users/davidrochus/Dev/workspace/Defi4/contracts/Staking.sol",
  "compiler": {
    "name": "solc",
    "version": "0.6.12+commit.27d51765.Emscripten.clang"
  },
  "schemaVersion": "3.4.1",
  "updatedAt": "2021-06-18T13:35:05.984Z",
  "networkType": "ethereum",
  "devdoc": {
    "author": "David Rochus",
    "kind": "dev",
    "methods": {
      "owner()": {
        "details": "Returns the address of the current owner."
      },
      "renounceOwnership()": {
        "details": "Leaves the contract without owner. It will not be possible to call `onlyOwner` functions anymore. Can only be called by the current owner. NOTE: Renouncing ownership will leave the contract without an owner, thereby removing any functionality that is only available to the owner."
      },
      "transferOwnership(address)": {
        "details": "Transfers ownership of the contract to a new account (`newOwner`). Can only be called by the current owner."
      }
    },
    "title": "Staking Contract",
    "version": 1
  },
  "userdoc": {
    "kind": "user",
    "methods": {},
    "notice": "Alyra DeFi4 - Staking contract",
    "version": 1
  }
}